{
  "contractName": "PriorityQueue",
  "abi": [
    {
      "constant": true,
      "inputs": [],
      "name": "currentSize",
      "outputs": [
        {
          "name": "",
          "type": "uint256"
        }
      ],
      "payable": false,
      "stateMutability": "view",
      "type": "function"
    },
    {
      "inputs": [],
      "payable": false,
      "stateMutability": "nonpayable",
      "type": "constructor"
    },
    {
      "constant": false,
      "inputs": [
        {
          "name": "k",
          "type": "uint256"
        }
      ],
      "name": "insert",
      "outputs": [],
      "payable": false,
      "stateMutability": "nonpayable",
      "type": "function"
    },
    {
      "constant": true,
      "inputs": [
        {
          "name": "i",
          "type": "uint256"
        }
      ],
      "name": "minChild",
      "outputs": [
        {
          "name": "",
          "type": "uint256"
        }
      ],
      "payable": false,
      "stateMutability": "view",
      "type": "function"
    },
    {
      "constant": true,
      "inputs": [],
      "name": "getMin",
      "outputs": [
        {
          "name": "",
          "type": "uint256"
        }
      ],
      "payable": false,
      "stateMutability": "view",
      "type": "function"
    },
    {
      "constant": false,
      "inputs": [],
      "name": "delMin",
      "outputs": [
        {
          "name": "",
          "type": "uint256"
        }
      ],
      "payable": false,
      "stateMutability": "nonpayable",
      "type": "function"
    }
  ],
  "bytecode": "0x608060405234801561001057600080fd5b50336000806101000a81548173ffffffffffffffffffffffffffffffffffffffff021916908373ffffffffffffffffffffffffffffffffffffffff160217905550602060405190810160405280600060ff168152506001906001610075929190610083565b5060006002819055506100fa565b8280548282559060005260206000209081019282156100c4579160200282015b828111156100c3578251829060ff169055916020019190600101906100a3565b5b5090506100d191906100d5565b5090565b6100f791905b808211156100f35760008160009055506001016100db565b5090565b90565b610732806101096000396000f30060806040526004361061006d576000357c0100000000000000000000000000000000000000000000000000000000900463ffffffff1680632dcdcd0c1461007257806390b5561d146100b3578063b07576ac146100e0578063bda1504b1461010b578063d6362e9714610136575b600080fd5b34801561007e57600080fd5b5061009d60048036038101908080359060200190929190505050610161565b6040518082815260200191505060405180910390f35b3480156100bf57600080fd5b506100de6004803603810190808035906020019092919050505061026b565b005b3480156100ec57600080fd5b506100f561031c565b6040518082815260200191505060405180910390f35b34801561011757600080fd5b50610120610441565b6040518082815260200191505060405180910390f35b34801561014257600080fd5b5061014b610447565b6040518082815260200191505060405180910390f35b600060025461018d600161017f60028661046890919063ffffffff16565b6104a390919063ffffffff16565b11156101ae576101a760028361046890919063ffffffff16565b9050610266565b60016101d760016101c960028661046890919063ffffffff16565b6104a390919063ffffffff16565b8154811015156101e357fe5b9060005260206000200154600161020460028561046890919063ffffffff16565b81548110151561021057fe5b9060005260206000200154101561023c5761023560028361046890919063ffffffff16565b9050610266565b610263600161025560028561046890919063ffffffff16565b6104a390919063ffffffff16565b90505b919050565b6000809054906101000a900473ffffffffffffffffffffffffffffffffffffffff1673ffffffffffffffffffffffffffffffffffffffff163373ffffffffffffffffffffffffffffffffffffffff161415156102c657600080fd5b600181908060018154018082558091505090600182039060005260206000200160009091929091909150555061030860016002546104a390919063ffffffff16565b6002819055506103196002546104c1565b50565b6000806000809054906101000a900473ffffffffffffffffffffffffffffffffffffffff1673ffffffffffffffffffffffffffffffffffffffff163373ffffffffffffffffffffffffffffffffffffffff1614151561037a57600080fd5b60018081548110151561038957fe5b9060005260206000200154905060016002548154811015156103a757fe5b90600052602060002001546001808154811015156103c157fe5b906000526020600020018190555060016002548154811015156103e057fe5b906000526020600020016000905561040460016002546105aa90919063ffffffff16565b60028190555061041460016105c3565b61042c600180805490506105aa90919063ffffffff16565b60018161043991906106b5565b508091505090565b60025481565b600060018081548110151561045857fe5b9060005260206000200154905090565b600080600084141561047d576000915061049c565b828402905082848281151561048e57fe5b0414151561049857fe5b8091505b5092915050565b60008082840190508381101515156104b757fe5b8091505092915050565b6000808291506001838154811015156104d657fe5b906000526020600020015490505b60016104fa60028561069a90919063ffffffff16565b81548110151561050657fe5b906000526020600020015481101561057d57600161052e60028561069a90919063ffffffff16565b81548110151561053a57fe5b906000526020600020015460018481548110151561055457fe5b906000526020600020018190555061057660028461069a90919063ffffffff16565b92506104e4565b81831415156105a5578060018481548110151561059657fe5b90600052602060002001819055505b505050565b60008282111515156105b857fe5b818303905092915050565b60008060008392506001848154811015156105da57fe5b906000526020600020015491506105f084610161565b90505b600254811115801561061d575060018181548110151561060f57fe5b906000526020600020015482115b1561066c5760018181548110151561063157fe5b906000526020600020015460018581548110151561064b57fe5b906000526020600020018190555080935061066584610161565b90506105f3565b8284141515610694578160018581548110151561068557fe5b90600052602060002001819055505b50505050565b60008082848115156106a857fe5b0490508091505092915050565b8154818355818111156106dc578183600052602060002091820191016106db91906106e1565b5b505050565b61070391905b808211156106ff5760008160009055506001016106e7565b5090565b905600a165627a7a7230582012d436ed3886f28df64ba417dedd5852f33403af6ac0b808dcff5388191ec9ed0029",
  "source": "pragma solidity ^0.4.0;\n\nimport \"./SafeMath.sol\";\n\n\n/**\n * @title PriorityQueue\n * @dev A priority queue implementation\n */\ncontract PriorityQueue {\n    using SafeMath for uint256;\n\n    /*\n     *  Modifiers\n     */\n    modifier onlyOwner() {\n        require(msg.sender == owner);\n        _;\n    }\n\n    /*\n     *  Storage\n     */\n    address owner;\n    uint256[] heapList;\n    uint256 public currentSize;\n\n    function PriorityQueue()\n    public\n    {\n        owner = msg.sender;\n        heapList = [0];\n        currentSize = 0;\n    }\n\n    function insert(uint256 k)\n    public\n    onlyOwner\n    {\n        heapList.push(k);\n        currentSize = currentSize.add(1);\n        percUp(currentSize);\n    }\n\n    function minChild(uint256 i)\n    public\n    view\n    returns (uint256)\n    {\n        if (i.mul(2).add(1) > currentSize) {\n            return i.mul(2);\n        } else {\n            if (heapList[i.mul(2)] < heapList[i.mul(2).add(1)]) {\n                return i.mul(2);\n            } else {\n                return i.mul(2).add(1);\n            }\n        }\n    }\n\n    function getMin()\n    public\n    view\n    returns (uint256)\n    {\n        return heapList[1];\n    }\n\n    function delMin()\n    public\n    onlyOwner\n    returns (uint256)\n    {\n        uint256 retVal = heapList[1];\n        heapList[1] = heapList[currentSize];\n        delete heapList[currentSize];\n        currentSize = currentSize.sub(1);\n        percDown(1);\n        heapList.length = heapList.length.sub(1);\n        return retVal;\n    }\n\n    function percUp(uint256 i)\n    private\n    {\n        uint256 j = i;\n        uint256 newVal = heapList[i];\n        while (newVal < heapList[i.div(2)]) {\n            heapList[i] = heapList[i.div(2)];\n            i = i.div(2);\n        }\n        if (i != j) heapList[i] = newVal;\n    }\n\n    function percDown(uint256 i)\n    private\n    {\n        uint256 j = i;\n        uint256 newVal = heapList[i];\n        uint256 mc = minChild(i);\n        while (mc <= currentSize && newVal > heapList[mc]) {\n            heapList[i] = heapList[mc];\n            i = mc;\n            mc = minChild(i);\n        }\n        if (i != j) heapList[i] = newVal;\n    }\n}",
  "sourcePath": "/Users/xiaohuo/go/src/github.com/renlulu/plasma-go/root-chain/contracts/contracts/PriorityQueue.sol",
  "compiler": {
    "name": "solc",
    "version": "0.4.23+commit.124ca40d.Emscripten.clang"
  },
  "schemaVersion": "2.0.1",
  "updatedAt": "2018-08-16T05:23:59.572Z"
}