{
  "contractName": "RootChain",
  "abi": [
    {
      "constant": true,
      "inputs": [
        {
          "name": "",
          "type": "uint256"
        }
      ],
      "name": "exits",
      "outputs": [
        {
          "name": "owner",
          "type": "address"
        },
        {
          "name": "token",
          "type": "address"
        },
        {
          "name": "amount",
          "type": "uint256"
        }
      ],
      "payable": false,
      "stateMutability": "view",
      "type": "function"
    },
    {
      "constant": true,
      "inputs": [],
      "name": "operator",
      "outputs": [
        {
          "name": "",
          "type": "address"
        }
      ],
      "payable": false,
      "stateMutability": "view",
      "type": "function"
    },
    {
      "constant": true,
      "inputs": [],
      "name": "currentChildBlock",
      "outputs": [
        {
          "name": "",
          "type": "uint256"
        }
      ],
      "payable": false,
      "stateMutability": "view",
      "type": "function"
    },
    {
      "constant": true,
      "inputs": [],
      "name": "CHILD_BLOCK_INTERVAL",
      "outputs": [
        {
          "name": "",
          "type": "uint256"
        }
      ],
      "payable": false,
      "stateMutability": "view",
      "type": "function"
    },
    {
      "constant": true,
      "inputs": [],
      "name": "currentDepositBlock",
      "outputs": [
        {
          "name": "",
          "type": "uint256"
        }
      ],
      "payable": false,
      "stateMutability": "view",
      "type": "function"
    },
    {
      "constant": true,
      "inputs": [],
      "name": "currentFeeExit",
      "outputs": [
        {
          "name": "",
          "type": "uint256"
        }
      ],
      "payable": false,
      "stateMutability": "view",
      "type": "function"
    },
    {
      "constant": true,
      "inputs": [
        {
          "name": "",
          "type": "address"
        }
      ],
      "name": "exitsQueues",
      "outputs": [
        {
          "name": "",
          "type": "address"
        }
      ],
      "payable": false,
      "stateMutability": "view",
      "type": "function"
    },
    {
      "constant": true,
      "inputs": [
        {
          "name": "",
          "type": "uint256"
        }
      ],
      "name": "childChain",
      "outputs": [
        {
          "name": "root",
          "type": "bytes32"
        },
        {
          "name": "timestamp",
          "type": "uint256"
        }
      ],
      "payable": false,
      "stateMutability": "view",
      "type": "function"
    },
    {
      "inputs": [],
      "payable": false,
      "stateMutability": "nonpayable",
      "type": "constructor"
    },
    {
      "anonymous": false,
      "inputs": [
        {
          "indexed": true,
          "name": "depositor",
          "type": "address"
        },
        {
          "indexed": true,
          "name": "depositBlock",
          "type": "uint256"
        },
        {
          "indexed": false,
          "name": "token",
          "type": "address"
        },
        {
          "indexed": false,
          "name": "amount",
          "type": "uint256"
        }
      ],
      "name": "Deposit",
      "type": "event"
    },
    {
      "anonymous": false,
      "inputs": [
        {
          "indexed": true,
          "name": "exitor",
          "type": "address"
        },
        {
          "indexed": true,
          "name": "utxoPos",
          "type": "uint256"
        },
        {
          "indexed": false,
          "name": "token",
          "type": "address"
        },
        {
          "indexed": false,
          "name": "amount",
          "type": "uint256"
        }
      ],
      "name": "ExitStarted",
      "type": "event"
    },
    {
      "anonymous": false,
      "inputs": [
        {
          "indexed": false,
          "name": "root",
          "type": "bytes32"
        },
        {
          "indexed": false,
          "name": "timestamp",
          "type": "uint256"
        }
      ],
      "name": "BlockSubmitted",
      "type": "event"
    },
    {
      "anonymous": false,
      "inputs": [
        {
          "indexed": false,
          "name": "token",
          "type": "address"
        }
      ],
      "name": "TokenAdded",
      "type": "event"
    },
    {
      "constant": false,
      "inputs": [
        {
          "name": "_root",
          "type": "bytes32"
        }
      ],
      "name": "submitBlock",
      "outputs": [],
      "payable": false,
      "stateMutability": "nonpayable",
      "type": "function"
    },
    {
      "constant": false,
      "inputs": [],
      "name": "deposit",
      "outputs": [],
      "payable": true,
      "stateMutability": "payable",
      "type": "function"
    },
    {
      "constant": false,
      "inputs": [
        {
          "name": "_depositPos",
          "type": "uint256"
        },
        {
          "name": "_token",
          "type": "address"
        },
        {
          "name": "_amount",
          "type": "uint256"
        }
      ],
      "name": "startDepositExit",
      "outputs": [],
      "payable": false,
      "stateMutability": "nonpayable",
      "type": "function"
    },
    {
      "constant": false,
      "inputs": [
        {
          "name": "_token",
          "type": "address"
        },
        {
          "name": "_amount",
          "type": "uint256"
        }
      ],
      "name": "startFeeExit",
      "outputs": [],
      "payable": false,
      "stateMutability": "nonpayable",
      "type": "function"
    },
    {
      "constant": false,
      "inputs": [
        {
          "name": "_utxoPos",
          "type": "uint256"
        },
        {
          "name": "_txBytes",
          "type": "bytes"
        },
        {
          "name": "_proof",
          "type": "bytes"
        },
        {
          "name": "_sigs",
          "type": "bytes"
        }
      ],
      "name": "startExit",
      "outputs": [],
      "payable": false,
      "stateMutability": "nonpayable",
      "type": "function"
    },
    {
      "constant": false,
      "inputs": [
        {
          "name": "_cUtxoPos",
          "type": "uint256"
        },
        {
          "name": "_eUtxoIndex",
          "type": "uint256"
        },
        {
          "name": "_txBytes",
          "type": "bytes"
        },
        {
          "name": "_proof",
          "type": "bytes"
        },
        {
          "name": "_sigs",
          "type": "bytes"
        },
        {
          "name": "_confirmationSig",
          "type": "bytes"
        }
      ],
      "name": "challengeExit",
      "outputs": [],
      "payable": false,
      "stateMutability": "nonpayable",
      "type": "function"
    },
    {
      "constant": false,
      "inputs": [
        {
          "name": "_token",
          "type": "address"
        }
      ],
      "name": "finalizeExits",
      "outputs": [],
      "payable": false,
      "stateMutability": "nonpayable",
      "type": "function"
    },
    {
      "constant": true,
      "inputs": [
        {
          "name": "_blockNumber",
          "type": "uint256"
        }
      ],
      "name": "getChildChain",
      "outputs": [
        {
          "name": "",
          "type": "bytes32"
        },
        {
          "name": "",
          "type": "uint256"
        }
      ],
      "payable": false,
      "stateMutability": "view",
      "type": "function"
    },
    {
      "constant": true,
      "inputs": [],
      "name": "getDepositBlock",
      "outputs": [
        {
          "name": "",
          "type": "uint256"
        }
      ],
      "payable": false,
      "stateMutability": "view",
      "type": "function"
    },
    {
      "constant": true,
      "inputs": [
        {
          "name": "_utxoPos",
          "type": "uint256"
        }
      ],
      "name": "getExit",
      "outputs": [
        {
          "name": "",
          "type": "address"
        },
        {
          "name": "",
          "type": "address"
        },
        {
          "name": "",
          "type": "uint256"
        }
      ],
      "payable": false,
      "stateMutability": "view",
      "type": "function"
    },
    {
      "constant": true,
      "inputs": [
        {
          "name": "_token",
          "type": "address"
        }
      ],
      "name": "getNextExit",
      "outputs": [
        {
          "name": "",
          "type": "uint256"
        },
        {
          "name": "",
          "type": "uint256"
        }
      ],
      "payable": false,
      "stateMutability": "view",
      "type": "function"
    }
  ],
  "bytecode": "0x60806040523480156200001157600080fd5b50336000806101000a81548173ffffffffffffffffffffffffffffffffffffffff021916908373ffffffffffffffffffffffffffffffffffffffff1602179055506103e8600181905550600160028190555060016003819055506200007562000116565b604051809103906000f08015801562000092573d6000803e3d6000fd5b50600660008073ffffffffffffffffffffffffffffffffffffffff1673ffffffffffffffffffffffffffffffffffffffff16815260200190815260200160002060006101000a81548173ffffffffffffffffffffffffffffffffffffffff021916908373ffffffffffffffffffffffffffffffffffffffff16021790555062000127565b60405161083b806200283783390190565b61270080620001376000396000f300608060405260043610610107576000357c0100000000000000000000000000000000000000000000000000000000900463ffffffff1680631c91a6b91461010c57806332773ba31461020b578063342de1791461035a57806340b8d53a14610401578063570ca7351461044e5780637a95f1e8146104a55780637d7b2051146104d057806385444de3146105135780638bfe0aec14610563578063a831fa07146105c1578063a98c7f2c146105ec578063baa4769414610617578063bcd5926114610648578063cfe7d85514610673578063d0e30db01461069e578063d11f045c146106a8578063e60f1ff11461072b578063f82f7a4b146107d2578063f95643b114610829575b600080fd5b34801561011857600080fd5b5061020960048036038101908080359060200190929190803590602001908201803590602001908080601f0160208091040260200160405190810160405280939291908181526020018383808284378201915050505050509192919290803590602001908201803590602001908080601f0160208091040260200160405190810160405280939291908181526020018383808284378201915050505050509192919290803590602001908201803590602001908080601f0160208091040260200160405190810160405280939291908181526020018383808284378201915050505050509192919290505050610879565b005b34801561021757600080fd5b506103586004803603810190808035906020019092919080359060200190929190803590602001908201803590602001908080601f0160208091040260200160405190810160405280939291908181526020018383808284378201915050505050509192919290803590602001908201803590602001908080601f0160208091040260200160405190810160405280939291908181526020018383808284378201915050505050509192919290803590602001908201803590602001908080601f0160208091040260200160405190810160405280939291908181526020018383808284378201915050505050509192919290803590602001908201803590602001908080601f0160208091040260200160405190810160405280939291908181526020018383808284378201915050505050509192919290505050610af8565b005b34801561036657600080fd5b5061038560048036038101908080359060200190929190505050610d53565b604051808473ffffffffffffffffffffffffffffffffffffffff1673ffffffffffffffffffffffffffffffffffffffff1681526020018373ffffffffffffffffffffffffffffffffffffffff1673ffffffffffffffffffffffffffffffffffffffff168152602001828152602001935050505060405180910390f35b34801561040d57600080fd5b5061044c600480360381019080803573ffffffffffffffffffffffffffffffffffffffff16906020019092919080359060200190929190505050610dbd565b005b34801561045a57600080fd5b50610463610e4a565b604051808273ffffffffffffffffffffffffffffffffffffffff1673ffffffffffffffffffffffffffffffffffffffff16815260200191505060405180910390f35b3480156104b157600080fd5b506104ba610e6f565b6040518082815260200191505060405180910390f35b3480156104dc57600080fd5b50610511600480360381019080803573ffffffffffffffffffffffffffffffffffffffff169060200190929190505050610e75565b005b34801561051f57600080fd5b5061053e600480360381019080803590602001909291905050506112de565b6040518083600019166000191681526020018281526020019250505060405180910390f35b34801561056f57600080fd5b506105a4600480360381019080803573ffffffffffffffffffffffffffffffffffffffff169060200190929190505050611318565b604051808381526020018281526020019250505060405180910390f35b3480156105cd57600080fd5b506105d661144e565b6040518082815260200191505060405180910390f35b3480156105f857600080fd5b50610601611454565b6040518082815260200191505060405180910390f35b34801561062357600080fd5b50610646600480360381019080803560001916906020019092919050505061145a565b005b34801561065457600080fd5b5061065d61156f565b6040518082815260200191505060405180910390f35b34801561067f57600080fd5b506106886115a1565b6040518082815260200191505060405180910390f35b6106a66115a7565b005b3480156106b457600080fd5b506106e9600480360381019080803573ffffffffffffffffffffffffffffffffffffffff169060200190929190505050611752565b604051808273ffffffffffffffffffffffffffffffffffffffff1673ffffffffffffffffffffffffffffffffffffffff16815260200191505060405180910390f35b34801561073757600080fd5b5061075660048036038101908080359060200190929190505050611785565b604051808473ffffffffffffffffffffffffffffffffffffffff1673ffffffffffffffffffffffffffffffffffffffff1681526020018373ffffffffffffffffffffffffffffffffffffffff1673ffffffffffffffffffffffffffffffffffffffff168152602001828152602001935050505060405180910390f35b3480156107de57600080fd5b5061082760048036038101908080359060200190929190803573ffffffffffffffffffffffffffffffffffffffff1690602001909291908035906020019092919050505061181c565b005b34801561083557600080fd5b5061085460048036038101908080359060200190929190505050611948565b6040518083600019166000191681526020018281526020019250505060405180910390f35b60008060006108866125fd565b600080633b9aca008a81151561089857fe5b049550612710633b9aca008b8115156108ad57fe5b068115156108b757fe5b0494506127108502633b9aca0087028b030393506108de848a61196c90919063ffffffff16565b9250826000015173ffffffffffffffffffffffffffffffffffffffff163373ffffffffffffffffffffffffffffffffffffffff1614151561091e57600080fd5b60046000878152602001908152602001600020600001549150886040518082805190602001908083835b60208310151561096d5780518252602082019150602081019050602083039250610948565b6001836020036101000a03801982511681845116808217855250505050505090500191505060405180910390206109a78860006082611a8c565b60405180836000191660001916815260200182805190602001908083835b6020831015156109ea57805182526020820191506020810190506020830392506109c5565b6001836020036101000a0380198251168184511680821785525050505050509050019250505060405180910390209050610a8c896040518082805190602001908083835b602083101515610a535780518252602082019150602081019050602083039250610a2e565b6001836020036101000a03801982511681845116808217855250505050505090500191505060405180910390208385606001518a611b19565b1515610a9757600080fd5b610ab285838a8460001916611c70909392919063ffffffff16565b1515610abd57600080fd5b610aec8a846000015185602001518660400151600460008c815260200190815260200160002060010154611d4d565b50505050505050505050565b6000806000806000806000610b168c8c6120ae90919063ffffffff16565b9650612710633b9aca008e811515610b2a57fe5b06811515610b3457fe5b04955060046000633b9aca008f811515610b4a57fe5b0481526020019081526020016000206000015494508a6040518082805190602001908083835b602083101515610b955780518252602082019150602081019050602083039250610b70565b6001836020036101000a03801982511681845116808217855250505050505090500191505060405180910390209350838560405180836000191660001916815260200182600019166000191681526020019250505060405180910390209250838960405180836000191660001916815260200182805190602001908083835b602083101515610c395780518252602082019150602081019050602083039250610c14565b6001836020036101000a03801982511681845116808217855250505050505090500192505050604051809103902091506005600088815260200190815260200160002060000160009054906101000a900473ffffffffffffffffffffffffffffffffffffffff169050610cac8389612142565b73ffffffffffffffffffffffffffffffffffffffff168173ffffffffffffffffffffffffffffffffffffffff16141515610ce557600080fd5b610d0086868c8560001916611c70909392919063ffffffff16565b1515610d0b57600080fd5b6005600088815260200190815260200160002060000160006101000a81549073ffffffffffffffffffffffffffffffffffffffff021916905550505050505050505050505050565b60056020528060005260406000206000915090508060000160009054906101000a900473ffffffffffffffffffffffffffffffffffffffff16908060010160009054906101000a900473ffffffffffffffffffffffffffffffffffffffff16908060020154905083565b6000809054906101000a900473ffffffffffffffffffffffffffffffffffffffff1673ffffffffffffffffffffffffffffffffffffffff163373ffffffffffffffffffffffffffffffffffffffff16141515610e1857600080fd5b610e2a60035433848460014201611d4d565b610e40600160035461223a90919063ffffffff16565b6003819055505050565b6000809054906101000a900473ffffffffffffffffffffffffffffffffffffffff1681565b60015481565b600080610e80612652565b6000610e8b85611318565b809450819550505060056000858152602001908152602001600020606060405190810160405290816000820160009054906101000a900473ffffffffffffffffffffffffffffffffffffffff1673ffffffffffffffffffffffffffffffffffffffff1673ffffffffffffffffffffffffffffffffffffffff1681526020016001820160009054906101000a900473ffffffffffffffffffffffffffffffffffffffff1673ffffffffffffffffffffffffffffffffffffffff1673ffffffffffffffffffffffffffffffffffffffff1681526020016002820154815250509150600660008673ffffffffffffffffffffffffffffffffffffffff1673ffffffffffffffffffffffffffffffffffffffff16815260200190815260200160002060009054906101000a900473ffffffffffffffffffffffffffffffffffffffff1690505b428310156112d65760056000858152602001908152602001600020606060405190810160405290816000820160009054906101000a900473ffffffffffffffffffffffffffffffffffffffff1673ffffffffffffffffffffffffffffffffffffffff1673ffffffffffffffffffffffffffffffffffffffff1681526020016001820160009054906101000a900473ffffffffffffffffffffffffffffffffffffffff1673ffffffffffffffffffffffffffffffffffffffff1673ffffffffffffffffffffffffffffffffffffffff16815260200160028201548152505091508473ffffffffffffffffffffffffffffffffffffffff16600073ffffffffffffffffffffffffffffffffffffffff161415156110e757600080fd5b816000015173ffffffffffffffffffffffffffffffffffffffff166108fc83604001519081150290604051600060405180830381858888f19350505050158015611135573d6000803e3d6000fd5b508073ffffffffffffffffffffffffffffffffffffffff1663b07576ac6040518163ffffffff167c0100000000000000000000000000000000000000000000000000000000028152600401602060405180830381600087803b15801561119a57600080fd5b505af11580156111ae573d6000803e3d6000fd5b505050506040513d60208110156111c457600080fd5b8101908080519060200190929190505050506005600085815260200190815260200160002060000160006101000a81549073ffffffffffffffffffffffffffffffffffffffff021916905560008173ffffffffffffffffffffffffffffffffffffffff1663bda1504b6040518163ffffffff167c0100000000000000000000000000000000000000000000000000000000028152600401602060405180830381600087803b15801561127557600080fd5b505af1158015611289573d6000803e3d6000fd5b505050506040513d602081101561129f57600080fd5b810190808051906020019092919050505011156112cc576112bf85611318565b80945081955050506112d1565b6112d7565b610fcd565b5b5050505050565b6000806004600084815260200190815260200160002060000154600460008581526020019081526020016000206001015491509150915091565b6000806000806000600660008773ffffffffffffffffffffffffffffffffffffffff1673ffffffffffffffffffffffffffffffffffffffff16815260200190815260200160002060009054906101000a900473ffffffffffffffffffffffffffffffffffffffff1673ffffffffffffffffffffffffffffffffffffffff1663d6362e976040518163ffffffff167c0100000000000000000000000000000000000000000000000000000000028152600401602060405180830381600087803b1580156113e357600080fd5b505af11580156113f7573d6000803e3d6000fd5b505050506040513d602081101561140d57600080fd5b81019080805190602001909291905050509250826fffffffffffffffffffffffffffffffff1691506080839060020a90049050818194509450505050915091565b6103e881565b60025481565b6000809054906101000a900473ffffffffffffffffffffffffffffffffffffffff1673ffffffffffffffffffffffffffffffffffffffff163373ffffffffffffffffffffffffffffffffffffffff161415156114b557600080fd5b6040805190810160405280826000191681526020014281525060046000600154815260200190815260200160002060008201518160000190600019169055602082015181600101559050506115176103e860015461223a90919063ffffffff16565b60018190555060016002819055507f3be20e672590051e92360aa9dd9247e52541ad35d7a0297ff9e0f94e993295e981426040518083600019166000191681526020018281526020019250505060405180910390a150565b600061159c60025461158e6103e860015461225890919063ffffffff16565b61223a90919063ffffffff16565b905090565b60035481565b6000806103e86002541015156115bc57600080fd5b33600034604051808473ffffffffffffffffffffffffffffffffffffffff1673ffffffffffffffffffffffffffffffffffffffff166c010000000000000000000000000281526014018373ffffffffffffffffffffffffffffffffffffffff1673ffffffffffffffffffffffffffffffffffffffff166c0100000000000000000000000002815260140182815260200193505050506040518091039020915061166361156f565b9050604080519081016040528083600019168152602001428152506004600083815260200190815260200160002060008201518160000190600019169055602082015181600101559050506116c4600160025461223a90919063ffffffff16565b600281905550803373ffffffffffffffffffffffffffffffffffffffff167fd2f8022f659fd9c8c558f30c00fd5ee7038f7cb56da45095c3e0e7d48b3e0c4b600034604051808373ffffffffffffffffffffffffffffffffffffffff1673ffffffffffffffffffffffffffffffffffffffff1681526020018281526020019250505060405180910390a35050565b60066020528060005260406000206000915054906101000a900473ffffffffffffffffffffffffffffffffffffffff1681565b60008060006005600085815260200190815260200160002060000160009054906101000a900473ffffffffffffffffffffffffffffffffffffffff166005600086815260200190815260200160002060010160009054906101000a900473ffffffffffffffffffffffffffffffffffffffff1660056000878152602001908152602001600020600201549250925092509193909250565b6000806000633b9aca008681151561183057fe5b04925060006103e88481151561184257fe5b061415151561185057600080fd5b60046000848152602001908152602001600020600001549150338585604051808473ffffffffffffffffffffffffffffffffffffffff1673ffffffffffffffffffffffffffffffffffffffff166c010000000000000000000000000281526014018373ffffffffffffffffffffffffffffffffffffffff1673ffffffffffffffffffffffffffffffffffffffff166c010000000000000000000000000281526014018281526020019350505050604051809103902090508060001916826000191614151561191d57600080fd5b611940863387876004600089815260200190815260200160002060010154611d4d565b505050505050565b60046020528060005260406000206000915090508060000154908060010154905082565b6119746125fd565b606061198761198285612271565b6122c7565b90506080604051908101604052806119bb83866002026007018151811015156119ac57fe5b906020019060200201516123a3565b73ffffffffffffffffffffffffffffffffffffffff1681526020016119f78360068151811015156119e857fe5b906020019060200201516123a3565b73ffffffffffffffffffffffffffffffffffffffff168152602001611a388386600202600801815181101515611a2957fe5b906020019060200201516123da565b8152602001611a5e836003815181101515611a4f57fe5b906020019060200201516123da565b611a7f846000815181101515611a7057fe5b906020019060200201516123da565b0281525091505092915050565b606080828401855110151515611aa157600080fd5b821560008114611abc57604051915060208201604052611b0d565b6040519150601f8416801560200281840101858101878315602002848b0101015b81831015611afa5780518352602083019250602081019050611add565b50868552601f19601f8301166040525050505b50809150509392505050565b6000606080606060008060006060600060418a51811515611b3657fe5b06148015611b475750610104895111155b1515611b5257600080fd5b611b5f8960006041611a8c565b9650611b6d89604180611a8c565b9550611b7c8960826041611a8c565b94508b8b604051808360001916600019168152602001826000191660001916815260200192505050604051809103902093506001925060019150611bc08486612142565b73ffffffffffffffffffffffffffffffffffffffff16611be08d89612142565b73ffffffffffffffffffffffffffffffffffffffff1614925060008a1115611c5557611c0f8960c36041611a8c565b9050611c1b8482612142565b73ffffffffffffffffffffffffffffffffffffffff16611c3b8d88612142565b73ffffffffffffffffffffffffffffffffffffffff161491505b828015611c5f5750815b975050505050505050949350505050565b6000806000806102008551141515611c8757600080fd5b879150602090505b61020081111515611d35578085015192506000600288811515611cae57fe5b061415611cea57818360405180836000191660001916815260200182600019166000191681526020019250505060405180910390209150611d1b565b8282604051808360001916600019168152602001826000191660001916815260200192505050604051809103902091505b600287811515611d2757fe5b049650602081019050611c8f565b85600019168260001916149350505050949350505050565b60008060008073ffffffffffffffffffffffffffffffffffffffff16600660008873ffffffffffffffffffffffffffffffffffffffff1673ffffffffffffffffffffffffffffffffffffffff16815260200190815260200160002060009054906101000a900473ffffffffffffffffffffffffffffffffffffffff1673ffffffffffffffffffffffffffffffffffffffff1614151515611dec57600080fd5b611e0062127500850162093a80420161241c565b9250876080849060020a02179150600085111515611e1d57600080fd5b6000600560008a815260200190815260200160002060020154141515611e4257600080fd5b600660008773ffffffffffffffffffffffffffffffffffffffff1673ffffffffffffffffffffffffffffffffffffffff16815260200190815260200160002060009054906101000a900473ffffffffffffffffffffffffffffffffffffffff1690508073ffffffffffffffffffffffffffffffffffffffff166390b5561d836040518263ffffffff167c010000000000000000000000000000000000000000000000000000000002815260040180828152602001915050600060405180830381600087803b158015611f1357600080fd5b505af1158015611f27573d6000803e3d6000fd5b505050506060604051908101604052808873ffffffffffffffffffffffffffffffffffffffff1681526020018773ffffffffffffffffffffffffffffffffffffffff16815260200186815250600560008a815260200190815260200160002060008201518160000160006101000a81548173ffffffffffffffffffffffffffffffffffffffff021916908373ffffffffffffffffffffffffffffffffffffffff16021790555060208201518160010160006101000a81548173ffffffffffffffffffffffffffffffffffffffff021916908373ffffffffffffffffffffffffffffffffffffffff16021790555060408201518160020155905050873373ffffffffffffffffffffffffffffffffffffffff167ff0537507c0bb9b823a1e4f5522ed9f25512618d4d169c9eb70a5ee2e9fb8bd578888604051808373ffffffffffffffffffffffffffffffffffffffff1673ffffffffffffffffffffffffffffffffffffffff1681526020018281526020019250505060405180910390a35050505050505050565b6000606060006120c56120c086612271565b6122c7565b91506003840290506120f082826002018151811015156120e157fe5b906020019060200201516123da565b612113838360010181518110151561210457fe5b906020019060200201516123da565b612136848460000181518110151561212757fe5b906020019060200201516123da565b01019250505092915050565b6000806000806041855114151561215c5760009350612231565b6020850151925060408501519150606085015160001a9050601b8160ff16101561218757601b810190505b601b8160ff161415801561219f5750601c8160ff1614155b156121ad5760009350612231565b600186828585604051600081526020016040526040518085600019166000191681526020018460ff1660ff1681526020018360001916600019168152602001826000191660001916815260200194505050505060206040516020810390808403906000865af1158015612224573d6000803e3d6000fd5b5050506020604051035193505b50505092915050565b600080828401905083811015151561224e57fe5b8091505092915050565b600082821115151561226657fe5b818303905092915050565b6122796126a0565b600080835114156122a257604080519081016040528060008152602001600081525091506122c1565b6020830190506040805190810160405280845181526020018281525091505b50919050565b60606000806000806122d886612436565b15156122e357600080fd5b6122ec8661246d565b93508360405190808252806020026020018201604052801561232857816020015b6123156126ba565b81526020019060019003908161230d5790505b50945061233886602001516124c7565b8660200151019250600090505b8381101561239a576123568361254d565b9150604080519081016040528083815260200184815250858281518110151561237b57fe5b9060200190602002018190525081830192508080600101915050612345565b50505050919050565b6000806000601584600001511415156123bb57600080fd5b60018460200151019150600c6101000a82510490508092505050919050565b60008060008060006123ef86602001516124c7565b9350838660000151039250838660200151019150826020036101000a825104905080945050505050919050565b60008183101561242c578161242e565b825b905092915050565b600080600083602001519050805160001a915060c060ff168260ff1610156124615760009250612466565b600192505b5050919050565b6000806000806000925061248485602001516124c7565b8560200151019150846000015185602001510190505b808210156124bc576124ab8261254d565b82019150828060010193505061249a565b829350505050919050565b600080825160001a9050608060ff168110156124e65760009150612547565b60b860ff1681108061250b575060c060ff16811015801561250a575060f860ff1681105b5b156125195760019150612547565b60c060ff168110156125385760018060b80360ff168203019150612547565b60018060f80360ff1682030191505b50919050565b600080825160001a9050608060ff1681101561256c57600191506125f7565b60b860ff16811015612589576001608060ff1682030191506125f7565b60c060ff168110156125b95760b78103600184019350806020036101000a845104600182018101935050506125f6565b60f860ff168110156125d657600160c060ff1682030191506125f7565b60f78103600184019350806020036101000a845104600182018101935050505b5b50919050565b608060405190810160405280600073ffffffffffffffffffffffffffffffffffffffff168152602001600073ffffffffffffffffffffffffffffffffffffffff16815260200160008152602001600081525090565b606060405190810160405280600073ffffffffffffffffffffffffffffffffffffffff168152602001600073ffffffffffffffffffffffffffffffffffffffff168152602001600081525090565b604080519081016040528060008152602001600081525090565b6040805190810160405280600081526020016000815250905600a165627a7a723058203e3f97f799d13336c4aa11481c2923dca25a5b3f85a61fc92c15be04edcfde230029608060405234801561001057600080fd5b50336000806101000a81548173ffffffffffffffffffffffffffffffffffffffff021916908373ffffffffffffffffffffffffffffffffffffffff160217905550602060405190810160405280600060ff168152506001906001610075929190610083565b5060006002819055506100fa565b8280548282559060005260206000209081019282156100c4579160200282015b828111156100c3578251829060ff169055916020019190600101906100a3565b5b5090506100d191906100d5565b5090565b6100f791905b808211156100f35760008160009055506001016100db565b5090565b90565b610732806101096000396000f30060806040526004361061006d576000357c0100000000000000000000000000000000000000000000000000000000900463ffffffff1680632dcdcd0c1461007257806390b5561d146100b3578063b07576ac146100e0578063bda1504b1461010b578063d6362e9714610136575b600080fd5b34801561007e57600080fd5b5061009d60048036038101908080359060200190929190505050610161565b6040518082815260200191505060405180910390f35b3480156100bf57600080fd5b506100de6004803603810190808035906020019092919050505061026b565b005b3480156100ec57600080fd5b506100f561031c565b6040518082815260200191505060405180910390f35b34801561011757600080fd5b50610120610441565b6040518082815260200191505060405180910390f35b34801561014257600080fd5b5061014b610447565b6040518082815260200191505060405180910390f35b600060025461018d600161017f60028661046890919063ffffffff16565b6104a390919063ffffffff16565b11156101ae576101a760028361046890919063ffffffff16565b9050610266565b60016101d760016101c960028661046890919063ffffffff16565b6104a390919063ffffffff16565b8154811015156101e357fe5b9060005260206000200154600161020460028561046890919063ffffffff16565b81548110151561021057fe5b9060005260206000200154101561023c5761023560028361046890919063ffffffff16565b9050610266565b610263600161025560028561046890919063ffffffff16565b6104a390919063ffffffff16565b90505b919050565b6000809054906101000a900473ffffffffffffffffffffffffffffffffffffffff1673ffffffffffffffffffffffffffffffffffffffff163373ffffffffffffffffffffffffffffffffffffffff161415156102c657600080fd5b600181908060018154018082558091505090600182039060005260206000200160009091929091909150555061030860016002546104a390919063ffffffff16565b6002819055506103196002546104c1565b50565b6000806000809054906101000a900473ffffffffffffffffffffffffffffffffffffffff1673ffffffffffffffffffffffffffffffffffffffff163373ffffffffffffffffffffffffffffffffffffffff1614151561037a57600080fd5b60018081548110151561038957fe5b9060005260206000200154905060016002548154811015156103a757fe5b90600052602060002001546001808154811015156103c157fe5b906000526020600020018190555060016002548154811015156103e057fe5b906000526020600020016000905561040460016002546105aa90919063ffffffff16565b60028190555061041460016105c3565b61042c600180805490506105aa90919063ffffffff16565b60018161043991906106b5565b508091505090565b60025481565b600060018081548110151561045857fe5b9060005260206000200154905090565b600080600084141561047d576000915061049c565b828402905082848281151561048e57fe5b0414151561049857fe5b8091505b5092915050565b60008082840190508381101515156104b757fe5b8091505092915050565b6000808291506001838154811015156104d657fe5b906000526020600020015490505b60016104fa60028561069a90919063ffffffff16565b81548110151561050657fe5b906000526020600020015481101561057d57600161052e60028561069a90919063ffffffff16565b81548110151561053a57fe5b906000526020600020015460018481548110151561055457fe5b906000526020600020018190555061057660028461069a90919063ffffffff16565b92506104e4565b81831415156105a5578060018481548110151561059657fe5b90600052602060002001819055505b505050565b60008282111515156105b857fe5b818303905092915050565b60008060008392506001848154811015156105da57fe5b906000526020600020015491506105f084610161565b90505b600254811115801561061d575060018181548110151561060f57fe5b906000526020600020015482115b1561066c5760018181548110151561063157fe5b906000526020600020015460018581548110151561064b57fe5b906000526020600020018190555080935061066584610161565b90506105f3565b8284141515610694578160018581548110151561068557fe5b90600052602060002001819055505b50505050565b60008082848115156106a857fe5b0490508091505092915050565b8154818355818111156106dc578183600052602060002091820191016106db91906106e1565b5b505050565b61070391905b808211156106ff5760008160009055506001016106e7565b5090565b905600a165627a7a7230582012d436ed3886f28df64ba417dedd5852f33403af6ac0b808dcff5388191ec9ed0029",
  "source": "pragma solidity ^0.4.0;\n\nimport \"./SafeMath.sol\";\nimport \"./Math.sol\";\nimport \"./PlasmaRLP.sol\";\nimport \"./Merkle.sol\";\nimport \"./Validate.sol\";\nimport \"./PriorityQueue.sol\";\n\n\n/**\n * @title RootChain\n * @dev This contract secures a utxo payments plasma child chain to ethereum.\n */\ncontract RootChain {\n    using SafeMath for uint256;\n    using Merkle for bytes32;\n    using PlasmaRLP for bytes;\n\n\n    /*\n     * Events\n     */\n\n    event Deposit(\n        address indexed depositor,\n        uint256 indexed depositBlock,\n        address token,\n        uint256 amount\n    );\n\n    event ExitStarted(\n        address indexed exitor,\n        uint256 indexed utxoPos,\n        address token,\n        uint256 amount\n    );\n\n    event BlockSubmitted(\n        bytes32 root,\n        uint256 timestamp\n    );\n\n    event TokenAdded(\n        address token\n    );\n\n\n    /*\n     * Storage\n     */\n\n    uint256 public constant CHILD_BLOCK_INTERVAL = 1000;\n\n    address public operator;\n\n    uint256 public currentChildBlock;\n    uint256 public currentDepositBlock;\n    uint256 public currentFeeExit;\n\n    mapping (uint256 => ChildBlock) public childChain;\n    mapping (uint256 => Exit) public exits;\n    mapping (address => address) public exitsQueues;\n\n    struct Exit {\n        address owner;\n        address token;\n        uint256 amount;\n    }\n\n    struct ChildBlock {\n        bytes32 root;\n        uint256 timestamp;\n    }\n\n\n    /*\n     * Modifiers\n     */\n\n    modifier onlyOperator() {\n        require(msg.sender == operator);\n        _;\n    }\n\n\n    /*\n     * Constructor\n     */\n\n    constructor()\n    public\n    {\n        operator = msg.sender;\n        currentChildBlock = CHILD_BLOCK_INTERVAL;\n        currentDepositBlock = 1;\n        currentFeeExit = 1;\n        // Support only ETH on deployment; other tokens need\n        // to be added explicitly.\n        exitsQueues[address(0)] = address(new PriorityQueue());\n    }\n\n\n    /*\n     * Public Functions\n     */\n\n    /**\n     * @dev Allows Plasma chain operator to submit block root.\n     * @param _root The root of a child chain block.\n     */\n    function submitBlock(bytes32 _root)\n    public\n    onlyOperator\n    {\n        childChain[currentChildBlock] = ChildBlock({\n            root: _root,\n            timestamp: block.timestamp\n            });\n\n        // Update block numbers.\n        currentChildBlock = currentChildBlock.add(CHILD_BLOCK_INTERVAL);\n        currentDepositBlock = 1;\n\n        emit BlockSubmitted(_root, block.timestamp);\n    }\n\n    /**\n     * @dev Allows anyone to deposit funds into the Plasma chain.\n     */\n    function deposit()\n    public\n    payable\n    {\n        // Only allow up to CHILD_BLOCK_INTERVAL deposits per child block.\n        require(currentDepositBlock < CHILD_BLOCK_INTERVAL);\n\n        bytes32 root = keccak256(msg.sender, address(0), msg.value);\n        uint256 depositBlock = getDepositBlock();\n        childChain[depositBlock] = ChildBlock({\n            root: root,\n            timestamp: block.timestamp\n            });\n        currentDepositBlock = currentDepositBlock.add(1);\n\n        emit Deposit(msg.sender, depositBlock, address(0), msg.value);\n    }\n\n    /**\n     * @dev Starts an exit from a deposit.\n     * @param _depositPos UTXO position of the deposit.\n     * @param _token Token type to deposit.\n     * @param _amount Deposit amount.\n     */\n    function startDepositExit(uint256 _depositPos, address _token, uint256 _amount)\n    public\n    {\n        uint256 blknum = _depositPos / 1000000000;\n\n        // Check that the given UTXO is a deposit.\n        require(blknum % CHILD_BLOCK_INTERVAL != 0);\n\n        // Validate the given owner and amount.\n        bytes32 root = childChain[blknum].root;\n        bytes32 depositHash = keccak256(msg.sender, _token, _amount);\n        require(root == depositHash);\n\n        addExitToQueue(_depositPos, msg.sender, _token, _amount, childChain[blknum].timestamp);\n    }\n\n    /**\n     * @dev Allows the operator withdraw any allotted fees. Starts an exit to avoid theft.\n     * @param _token Token to withdraw.\n     * @param _amount Amount in fees to withdraw.\n     */\n    function startFeeExit(address _token, uint256 _amount)\n    public\n    onlyOperator\n    {\n        addExitToQueue(currentFeeExit, msg.sender, _token, _amount, block.timestamp + 1);\n        currentFeeExit = currentFeeExit.add(1);\n    }\n\n    /**\n     * @dev Starts to exit a specified utxo.\n     * @param _utxoPos The position of the exiting utxo in the format of blknum * 1000000000 + index * 10000 + oindex.\n     * @param _txBytes The transaction being exited in RLP bytes format.\n     * @param _proof Proof of the exiting transactions inclusion for the block specified by utxoPos.\n     * @param _sigs Both transaction signatures and confirmations signatures used to verify that the exiting transaction has been confirmed.\n     */\n    function startExit(\n        uint256 _utxoPos,\n        bytes _txBytes,\n        bytes _proof,\n        bytes _sigs\n    )\n    public\n    {\n        uint256 blknum = _utxoPos / 1000000000;\n        uint256 txindex = (_utxoPos % 1000000000) / 10000;\n        uint256 oindex = _utxoPos - blknum * 1000000000 - txindex * 10000;\n\n        // Check the sender owns this UTXO.\n        var exitingTx = _txBytes.createExitingTx(oindex);\n        require(msg.sender == exitingTx.exitor);\n\n        // Check the transaction was included in the chain and is correctly signed.\n        bytes32 root = childChain[blknum].root;\n        bytes32 merkleHash = keccak256(keccak256(_txBytes), ByteUtils.slice(_sigs, 0, 130));\n        require(Validate.checkSigs(keccak256(_txBytes), root, exitingTx.inputCount, _sigs));\n        require(merkleHash.checkMembership(txindex, root, _proof));\n\n        addExitToQueue(_utxoPos, exitingTx.exitor, exitingTx.token, exitingTx.amount, childChain[blknum].timestamp);\n    }\n\n    /**\n     * @dev Allows anyone to challenge an exiting transaction by submitting proof of a double spend on the child chain.\n     * @param _cUtxoPos The position of the challenging utxo.\n     * @param _eUtxoIndex The output position of the exiting utxo.\n     * @param _txBytes The challenging transaction in bytes RLP form.\n     * @param _proof Proof of inclusion for the transaction used to challenge.\n     * @param _sigs Signatures for the transaction used to challenge.\n     * @param _confirmationSig The confirmation signature for the transaction used to challenge.\n     */\n    function challengeExit(\n        uint256 _cUtxoPos,\n        uint256 _eUtxoIndex,\n        bytes _txBytes,\n        bytes _proof,\n        bytes _sigs,\n        bytes _confirmationSig\n    )\n    public\n    {\n        uint256 eUtxoPos = _txBytes.getUtxoPos(_eUtxoIndex);\n        uint256 txindex = (_cUtxoPos % 1000000000) / 10000;\n        bytes32 root = childChain[_cUtxoPos / 1000000000].root;\n        var txHash = keccak256(_txBytes);\n        var confirmationHash = keccak256(txHash, root);\n        var merkleHash = keccak256(txHash, _sigs);\n        address owner = exits[eUtxoPos].owner;\n\n        // Validate the spending transaction.\n        require(owner == ECRecovery.recover(confirmationHash, _confirmationSig));\n        require(merkleHash.checkMembership(txindex, root, _proof));\n\n        // Delete the owner but keep the amount to prevent another exit.\n        delete exits[eUtxoPos].owner;\n    }\n\n    /**\n     * @dev Processes any exits that have completed the challenge period.\n     * @param _token Token type to process.\n     */\n    function finalizeExits(address _token)\n    public\n    {\n        uint256 utxoPos;\n        uint256 exitable_at;\n        (utxoPos, exitable_at) = getNextExit(_token);\n        Exit memory currentExit = exits[utxoPos];\n        PriorityQueue queue = PriorityQueue(exitsQueues[_token]);\n        while (exitable_at < block.timestamp) {\n            currentExit = exits[utxoPos];\n\n            // FIXME: handle ERC-20 transfer\n            require(address(0) == _token);\n\n            currentExit.owner.transfer(currentExit.amount);\n            queue.delMin();\n            delete exits[utxoPos].owner;\n\n            if (queue.currentSize() > 0) {\n                (utxoPos, exitable_at) = getNextExit(_token);\n            } else {\n                return;\n            }\n        }\n    }\n\n\n    /*\n     * Public view functions\n     */\n\n    /**\n     * @dev Queries the child chain.\n     * @param _blockNumber Number of the block to return.\n     * @return Child chain block at the specified block number.\n     */\n    function getChildChain(uint256 _blockNumber)\n    public\n    view\n    returns (bytes32, uint256)\n    {\n        return (childChain[_blockNumber].root, childChain[_blockNumber].timestamp);\n    }\n\n    /**\n     * @dev Determines the next deposit block number.\n     * @return Block number to be given to the next deposit block.\n     */\n    function getDepositBlock()\n    public\n    view\n    returns (uint256)\n    {\n        return currentChildBlock.sub(CHILD_BLOCK_INTERVAL).add(currentDepositBlock);\n    }\n\n    /**\n     * @dev Returns information about an exit.\n     * @param _utxoPos Position of the UTXO in the chain.\n     * @return A tuple representing the active exit for the given UTXO.\n     */\n    function getExit(uint256 _utxoPos)\n    public\n    view\n    returns (address, address, uint256)\n    {\n        return (exits[_utxoPos].owner, exits[_utxoPos].token, exits[_utxoPos].amount);\n    }\n\n    /**\n     * @dev Determines the next exit to be processed.\n     * @param _token Asset type to be exited.\n     * @return A tuple of the position and time when this exit can be processed.\n     */\n    function getNextExit(address _token)\n    public\n    view\n    returns (uint256, uint256)\n    {\n        uint256 priority = PriorityQueue(exitsQueues[_token]).getMin();\n        uint256 utxoPos = uint256(uint128(priority));\n        uint256 exitable_at = priority >> 128;\n        return (utxoPos, exitable_at);\n    }\n\n\n    /*\n     * Private functions\n     */\n\n    /**\n     * @dev Adds an exit to the exit queue.\n     * @param _utxoPos Position of the UTXO in the child chain.\n     * @param _exitor Owner of the UTXO.\n     * @param _token Token to be exited.\n     * @param _amount Amount to be exited.\n     * @param _created_at Time when the UTXO was created.\n     */\n    function addExitToQueue(\n        uint256 _utxoPos,\n        address _exitor,\n        address _token,\n        uint256 _amount,\n        uint256 _created_at\n    )\n    private\n    {\n        // Check that we're exiting a known token.\n        require(exitsQueues[_token] != address(0));\n\n        // Calculate priority.\n        uint256 exitable_at = Math.max(_created_at + 2 weeks, block.timestamp + 1 weeks);\n        uint256 priority = exitable_at << 128 | _utxoPos;\n\n        // Check exit is valid and doesn't already exist.\n        require(_amount > 0);\n        require(exits[_utxoPos].amount == 0);\n\n        PriorityQueue queue = PriorityQueue(exitsQueues[_token]);\n        queue.insert(priority);\n\n        exits[_utxoPos] = Exit({\n            owner: _exitor,\n            token: _token,\n            amount: _amount\n            });\n\n        emit ExitStarted(msg.sender, _utxoPos, _token, _amount);\n    }\n}",
  "sourcePath": "/Users/xiaohuo/go/src/github.com/renlulu/plasma-go/root-chain/contracts/contracts/RootChain.sol",
  "compiler": {
    "name": "solc",
    "version": "0.4.23+commit.124ca40d.Emscripten.clang"
  },
  "schemaVersion": "2.0.1",
  "updatedAt": "2018-08-16T05:23:59.576Z"
}